:1000000046C0B8C15FC05EC05DC05CC05BC05AC0C6
:1000100059C058C057C056C055C054C053C052C034
:1000200051C050C04FC009022200010100801909CF
:100030000400000103000000092101010001223039
:10004000000705810308000A1201100100000008E2
:10005000424231E1000100000001040309040501EE
:100060000905A101A10005091901290415002501AF
:10007000750195048102750495018103050109301C
:1000800009311581257F750895028102C0C01124B0
:100090001FBECFE5D2E0DEBFCDBF10E0A0E6B0E0EE
:1000A000E2EAF8E002C005900D92A236B107D9F756
:1000B00020E0A2E6B0E001C01D92A33AB207E1F74A
:1000C00070D3EDC39DCFCF93C62F2091780024FF2E
:1000D00007C03091790028E823272093790003C0D6
:1000E0002AE5209378002C2FFC01AAE7B0E081914B
:1000F0008D9321501216DCF36C2F8AE790E023D108
:10010000CC5FC0937800CF910895CF93DF93809117
:100110008900835087FD93C0909185009D3209F03E
:100120008CC0883009F089C080918600CCE0D0E096
:10013000C81BD109C357DF4F83EC80936D008AE55C
:1001400080936100109263008881807619F0CE015F
:10015000C1D26AC09A81109276008981811106C04D
:100160001092770026E730E082E05AC0853019F41B
:1001700090938A0052C08630D1F58B81813041F452
:1001800088E490E0909388008093870082E12BC000
:10019000823041F486E290E090938800809387005B
:1001A00082E221C0833051F491111CC08AE590E0B5
:1001B000909388008093870084E015C0813241F4D9
:1001C00088E390E0909388008093870089E00BC0DB
:1001D000823241F48EE590E090938800809387000E
:1001E00080E301C080E090E4909363001DC08830FC
:1001F00069F0893019F490938C000FC08A3049F06F
:100200008B3059F48BE48093790007C02CE830E000
:1002100002C026E730E081E003C026E730E080E05E
:1002200030938800209387009F81911104C09E81A4
:10023000981708F4892F80936000109289008091AC
:10024000610084FF46C0809160008F3F09F441C087
:10025000C82F893008F0C8E08C1B80936000909113
:100260006D0088E8892780936D00CC2331F140919F
:100270008700509188008091630086FF0AC0AEE637
:10028000B0E0FA019C2F84918D9331969150D9F76B
:1002900008C0DA01EEE6F0E09C2F8D918193915039
:1002A000E1F72FEF2C0F30E02F5F3F4FCA01820F95
:1002B000931F90938800809387006C2F8EE690E0C8
:1002C00042D0CC5FCC3019F08FEF80936000C093A8
:1002D000610084E196B3907631F48150D9F71092A1
:1002E0008A0010928400C1E08111C0E09091620008
:1002F000C91721F0811110D2C0936200DF91CF9114
:10030000089585B7836085BF8BB780648BBFE8E7AE
:10031000F0E08BE481838AE580830895A82FB92FCC
:1003200080E090E041E050EA609530E009C02D9116
:1003300082279795879510F084279527305EC8F31C
:100340006F5FA8F30895EADF8D939D930895A6E06B
:1003500088279927AA9569F00197E1F3B599FCCF11
:10036000B59BFECF81E09927A6B3019611F0A07648
:10037000D9F70895CF93CFB7CF93C395B59BE9F73E
:10038000B59B0BC0B59B09C0B59B07C0B59B05C00D
:10039000B59B03C0B59B01C0D5C00F92DF93C09140
:1003A0008600DD27C357DF4F012EB59B03C0DF91C9
:1003B0000F90E6CF2F930F931F934F932FEF4F6F15
:1003C00006B305FB20F95F933F9350E03BE065C027
:1003D00016B30126502955FDC89556B3012705FBD4
:1003E00025F92F7306B3B1F05027102715FB26F916
:1003F00006B22230F0F000C016B3012705FB27F942
:100400000126502906B22430E8F54F77206816B34C
:100410000000F6CF50274F7D206206B2102F00005B
:1004200000C006B300265029102715FB26F906B296
:10043000E2CF4F7B06B3206400C0DACF01265029FB
:10044000107606B269F14E7F2160012F16B328C0E5
:10045000002650294D7F06B22260102F29C00126A8
:1004600050294B7F06B22460012F2DC016B3012600
:100470005029477F2860000006B22EC04F7E06B389
:10048000206130C0422706B3499300265029102727
:1004900006B24FEF15FB20F9297F16B379F21076DB
:1004A00059F10126502906B2012705FB21F9237FC6
:1004B00006B371F2002650293150D0F006B2102751
:1004C00015FB22F9277E16B351F201265029012788
:1004D00005FB06B223F92F7C49F2000006B3102772
:1004E00015FB24F90026502906B22F7939F270CF76
:1004F00010E41ABF002719C03B503195C31BD040F0
:1005000010E41ABF0881033C09F10B34F9F0209183
:1005100084001981110F1213EDCF4A81441F09364F
:1005200051F10D3211F0013E29F700938B003F91FC
:100530005F914F911F910F912F91DF910F90CAB74B
:10054000C6FD1BCFCF91CFBFCF91189520918B00C7
:10055000222369F310918900112379F534307AF15F
:100560003093890020938500109186003BE0311B79
:100570003093860024C0009189000130F4F40AE52C
:100580004F7049F43091610034FD1AC0009361004E
:10059000CDE6D0E019C03091780034FD11C0009351
:1005A0007800C9E7D0E010C0052710E000C021C0E6
:1005B000052710E0C89508BB14C03AE501C032ED2C
:1005C000032EC0E0D0E032E017B31066C59A08B33E
:1005D00017BB50E620E84FEF20FF052708BB279503
:1005E00017951C3F28F700004552B0F720FF05275C
:1005F000279508BB17951C3FB8F629913A9561F7E6
:100600000F7910918A00110F08BBC250D04011F031
:100610001093840010E41ABF006217B31F79402FB3
:100620004F7954E05A95F1F708BB17BB48BB7FCF11
:10063000369A349BFECF349A84B195B1089581E007
:1006400090916600911180E080936A00809164002F
:100650009091650023E0969587952A95E1F7809320
:100660006C0010926B000895FF920F931F93CF932D
:10067000DF93082F10E1C0E0D0E0F82EF0948BB3A8
:10068000802B8BBB8CE190E10197F1F700C000005B
:100690008BB38F218BBB87B1807C87B9C9DF86E59F
:1006A00090E30197F1F700C0000087B1807C802BB8
:1006B00087B9BEDF24E0969587952A95E1F7C80FA4
:1006C000D91F1150E1F6CE01DF91CF911F910F910B
:1006D000FF900895FC018AE690E090938800809353
:1006E0008700808180768032A9F48181813019F47D
:1006F000A6DF83E00895823041F489E690E090938C
:1007000088008093870081E008958A3019F48381FE
:100710008093690080E00895DF92EF92FF920F933B
:100720001F93CF93DF93F89408E010E0C0E0D0E887
:10073000DD2EDC0ED1BE0BDE7C0184E3E81689E001
:10074000F8060CF4CD2DD6950150110989F78FEFDD
:100750008C0F81BF0C2F10E00F5F1F4F81B790E00F
:10076000081719078CF0F3DD8453994097FF03C0F5
:100770009195819591098E159F0514F4C1B77C015F
:1007800081B78F5F81BFEACFC1BF789461B780E046
:1007900090E0DF91CF911F910F91FF90EF90DF904C
:1007A00070C080E090E065D08F3F09F081BF80E0AD
:1007B00090E05FD081BF17B886E886B910926800D4
:1007C00010926700CAE00AE010E081E04DDFB80156
:1007D0003CD08091670090916800680F791F7093FA
:1007E000680060936700C15081F7BD9A84E1E2EB35
:1007F000F1EF3197F1F700C000008150C1F7BD98CB
:100800009EE088E10FB6F894A89581BD0FBE91BD1A
:1008100078DD7894A89581E027DF90936500809338
:10082000640081E021DF21E0813D974008F420E071
:10083000209366006ADC8091780084FFEBCFFFDEB6
:1008400063E08AE690E03FDCE5CFAA1BBB1B51E1E9
:1008500007C0AA1FBB1FA617B70710F0A61BB70B30
:10086000881F991F5A95A9F780959095BC01CD01D5
:100870000895E199FECF9FBB8EBBE09A99278DB377
:100880000895262FE199FECF1CBA9FBB8EBB2DBBCE
:100890000FB6F894E29AE19A0FBE01960895F89483
:0208A000FFCF88
:0208A200FF5AFB
:00000001FF
