:100000003FC0B6C157C056C055C054C053C052C0FF
:1000100051C050C04FC04EC00902220001010080F3
:100020001909040000010300000009210101000179
:100030002230000705810308000A120110010000A8
:100040000008424231E100010000000104030904FC
:1000500005010905A101A1000509190129041500DF
:10006000250175019504810275049501810305013F
:10007000093009311581257F750895028102C0C0BC
:1000800011241FBECFEDCDBF10E0A0E6B0E0EAEF37
:10009000F7E003C0C89531960D92A236B107D1F7AB
:1000A00020E0A2E6B0E001C01D92A03AB207E1F75D
:1000B00074D3A1C3A5CFCF93C62F2091750024FF81
:1000C00007C03091760028E823272093760003C0EC
:1000D0002AE5209375002C2FE82FF92FA7E7B0E031
:1000E00081918D9321501216DCF36C2F87E790E0FD
:1000F00028D1CC5FC0937500CF910895CF93DF9343
:1001000080918600835087FD94C0909182009D323B
:1001100009F08DC0883009F08AC080918300CCE05E
:10012000D0E0C81BD109C657DF4F83EC80936A002B
:100130008AE580936100109263008881807621F0C7
:100140008C2F9D2FC0D26AC09A8110927300898132
:10015000811106C01092740023E730E082E05AC09B
:10016000853019F49093870052C08630D1F58B8189
:10017000813041F48AE390E090938500809384007D
:1001800082E12BC0823041F488E190E090938500B9
:100190008093840082E221C0833051F491111CC00D
:1001A0008CE490E0909385008093840084E015C0F7
:1001B000813241F48AE290E090938500809384003C
:1001C00089E00BC0823241F480E590E09093850095
:1001D0008093840080E301C080E090E4909363000A
:1001E0001DC0883069F0893019F4909389000FC0E0
:1001F0008A3049F08B3059F48BE48093760007C045
:1002000029E830E002C023E730E081E003C023E7C3
:1002100030E080E030938500209384009F8191112D
:1002200004C09E81981708F4892F80936000109273
:1002300086008091610084FF4AC0809160008F3FFA
:1002400009F445C0C82F893008F0C8E08C1B8093A2
:10025000600090916A0088E8892780936A00CC2327
:1002600051F140918400509185008091630086FF98
:100270000CC0ABE6B0E0E42FF52F9C2FC895802D85
:100280008D9331969150D1F709C0A42FB52FEBE68D
:10029000F0E09C2F8D9181939150E1F72FEF2C0F7F
:1002A00030E02F5F3F4F842F952F820F931F909345
:1002B0008500809384006C2F8BE690E042D0CC5F69
:1002C000CC3019F08FEF80936000C093610084E11F
:1002D00096B3907631F48150D9F71092870010923E
:1002E0008100C1E08111C0E090916200C91721F046
:1002F00081110CD2C0936200DF91CF91089585B730
:10030000836085BF8BB780648BBFE5E7F0E08BE44B
:1003100081838AE580830895A82FB92F80E090E03B
:1003200041E050EA609530E009C02D918227979511
:10033000879510F084279527305EC8F36F5FA8F388
:100340000895EADF8D939D930895A6E08827992765
:10035000AA9569F00197E1F3B599FCCFB59BFECF63
:1003600081E09927A6B3019611F0A076D9F70895F8
:10037000CF93CFB7CF93C395B59BE9F7B59B0BC090
:10038000B59B09C0B59B07C0B59B05C0B59B03C015
:10039000B59B01C0D5C00F92DF93C0918300DD27CC
:1003A000C657DF4F012EB59B03C0DF910F90E6CFFC
:1003B0002F930F931F934F932FEF4F6F06B305FBB0
:1003C00020F95F933F9350E03BE065C016B30126F0
:1003D000502955FDC89556B3012705FB25F92F7304
:1003E00006B3B1F05027102715FB26F906B22230CC
:1003F000F0F000C016B3012705FB27F901265029AC
:1004000006B22430E8F54F77206816B30000F6CF27
:1004100050274F7D206206B2102F000000C006B3A7
:1004200000265029102715FB26F906B2E2CF4F7B94
:1004300006B3206400C0DACF01265029107606B238
:1004400069F14E7F2160012F16B328C00026502984
:100450004D7F06B22260102F29C0012650294B7F04
:1004600006B22460012F2DC016B301265029477F04
:100470002860000006B22EC04F7E06B3206130C057
:10048000422706B3499300265029102706B24FEFA2
:1004900015FB20F9297F16B379F2107659F1012660
:1004A000502906B2012705FB21F9237F06B371F21B
:1004B000002650293150D0F006B2102715FB22F942
:1004C000277E16B351F201265029012705FB06B2FB
:1004D00023F92F7C49F2000006B3102715FB24F9FD
:1004E0000026502906B22F7939F270CF10E41ABFD6
:1004F000002719C03B503195C31BD04010E41ABFF0
:100500000881033C09F10B34F9F020918100198135
:10051000110F1213EDCF4A81441F093651F10D32EC
:1005200011F0013E29F7009388003F915F914F91B0
:100530001F910F912F91DF910F90CAB7C6FD1BCF6E
:10054000CF91CFBFCF91189520918800222369F3D6
:1005500010918600112379F534307AF130938600BA
:1005600020938200109183003BE0311B3093830085
:1005700024C0009186000130F4F40AE54F7049F47C
:100580003091610034FD1AC000936100CAE6D0E0EA
:1005900019C03091750034FD11C000937500C6E795
:1005A000D0E010C0052710E000C021C0052710E0F2
:1005B000C89508BB14C03AE501C032ED032EC0E077
:1005C000D0E032E017B31066C59A08B317BB50E607
:1005D00020E84FEF20FF052708BB279517951C3F04
:1005E00028F700004552B0F720FF0527279508BBE4
:1005F00017951C3FB8F629913A9561F70F7910913C
:100600008700110F08BBC250D04011F01093810039
:1006100010E41ABF006217B31F79402F4F7954E0DE
:100620005A95F1F708BB17BB48BB7FCF369A349B6E
:10063000FECF349A84B195B10895E7E6F0E081E009
:100640008083809164009091650023E09695879562
:100650002A95E1F782830895FF920F931F93CF931A
:10066000DF93082F10E1C0E0D0E0F82EF0948BB3B8
:10067000802B8BBB8CE190E10197F1F700C000006B
:100680008BB38F218BBB87B1807C87B9CFDF86E5A9
:1006900090E30197F1F700C0000087B1807C802BC8
:1006A00087B9C4DF24E0969587952A95E1F7C80FAE
:1006B000D91F1150E1F68C2F9D2FDF91CF911F9103
:1006C0000F91FF900895E82FF92F87E690E090931F
:1006D000850080938400808180768032A9F48181B6
:1006E000813019F4AADF83E00895823041F486E670
:1006F00090E0909385008093840081E008958A3093
:1007000019F483818093660080E00895DF92EF9270
:10071000FF920F931F93CF93DF93F89408E010E0BC
:10072000C0E0D0E8DD2EDC0ED1BE0FDEE82EF92EC3
:1007300084E3E81689E0F8060CF4CD2DD695015037
:10074000110981F78FEF8C0F81BF0C2F10E00F5F25
:100750001F4F81B790E00817190794F0F6DD845316
:10076000994097FF03C09195819591098E159F053A
:100770001CF4C1B7E82EF92E81B78F5F81BFE9CF96
:10078000C1BF789461B780E090E0DF91CF911F9175
:100790000F91FF90EF90DF9022C086E886B981E04C
:1007A0005BDFBD9A84E1E2EBF1EF3197F1F700C036
:1007B00000008150C1F7BD98A2DD789481E04CDF44
:1007C000909365008093640099DC8091750084FFAC
:1007D000F5CF33DF63E087E690E06DDCEFCF262FC7
:1007E000E199FECF8EBB2DBB0FB6F894E29AE19A49
:0A07F0000FBE01960895F894FFCFA4
:0207FA00FF5AA4
:00000001FF
